:020000020000FC
:020000001FC01F
:02000800FBC13A
:0200100004C228
:1000400000E10EBF0FEF0DBF41E000E80ABB0FE07B
:1000500004BB042F009505BBB998BB98C19AC39AFD
:1000600089988B980CEC00936A000AE009BF789499
:10007000DF9800E1041B8FEF9FEF0197F1F70A95DE
:10008000D1F7DF9A00E1041B8FEF9FEF0197F1F7A3
:060090000A95D1F7EDCF47
:100400000F930FB70F93413021F04A95042F0095B9
:1004100005BB0F910FBF0F9118950F930FB70F9357
:100420004F3021F04395042F009505BB0F910FBF6E
:040430000F9118957B
:00000001FF
